S017000054657374546F75636853656E736F722E73726563F0
S11300000030002031010000C1000000C5000000E4
S1130010C1000000C1000000C1000000C1000000D8
S1130020C1000000C1000000C1000000C1000000C8
S1130030C1000000C1000000C1000000E107000091
S1130040C1000000C1000000C1000000C1000000A8
S1130050C1000000C1000000C1000000C100000098
S1130060C1000000C1000000C1000000C100000088
S1130070C1000000C1000000C1000000C100000078
S1130080C1000000C1000000C1000000C100000068
S1130090C1000000C1000000C1000000C100000058
S11300A0C1000000C100000081070000C100000081
S11300B0C1000000C1000000C1000000C100000038
S11300C0FEE7C046FEE7C04680221249124B920169
S11300D0585870B502435A508121104A10484900BB
S11300E0516042690139FF398A4342610269114210
S11300F008D15526AA2502240A4A9E509D5001691A
S11301000C42FAD00449034A07488B5803408B50E9
S113011070BDC046381000000070044000D0044098
S113012000F10F4004110000FFDFFFFFC046C0468E
S1130130FFF7CAFF344A354B35499A608022354B64
S11301409200585802435A50334A3449344899501B
S11301501A6834490A401A601A5833491140334A1C
S11301600A431A50324B3348996C01409964002178
S1130170DA6C0240DA64304B304A1970242353702D
S113018074331370D078793B0340D3700123137117
S11301905171103193791942FCD10C21274A93797A
S11301A00B40082BFBD1402138335371234A9379F8
S11301B01942FCD0182313700C2220498B79134068
S11301C00C2BFBD11E4A1F4B9A421AD2013B991A9F
S11301D00023890801311C488900C458D4500433D1
S11301E08B42FAD1D318194A934208D80321D21A60
S11301F08A43191D5218002102C39342FCD100F016
S113020035F91300EFE7C0460000000000ED00E000
S11302103810000000700440441000000000011079
S113022004100000FFFFF3FFFFFFFEFC00000101CC
S113023000900440FFF8FFFE0050064000400640D6
S113024000F0FF1F04F0FF1F340900004CF0FF1FF3
S1130250000000000000000000000000000000009A
S1130260000000000000000000000000000000008A
S1130270000000000000000000000000000000007A
S1130280000000000000000000000000000000006A
S1130290000000000000000000000000000000005A
S11302A0000000000000000000000000000000004A
S11302B0000000000000000000000000000000003A
S11302C0000000000000000000000000000000002A
S11302D0000000000000000000000000000000001A
S11302E0000000000000000000000000000000000A
S11302F000000000000000000000000000000000FA
S113030000000000000000000000000000000000E9
S113031000000000000000000000000000000000D9
S113032000000000000000000000000000000000C9
S113033000000000000000000000000000000000B9
S113034000000000000000000000000000000000A9
S11303500000000000000000000000000000000099
S11303600000000000000000000000000000000089
S11303700000000000000000000000000000000079
S11303800000000000000000000000000000000069
S11303900000000000000000000000000000000059
S11303A00000000000000000000000000000000049
S11303B00000000000000000000000000000000039
S11303C00000000000000000000000000000000029
S11303D00000000000000000000000000000000019
S11303E00000000000000000000000000000000009
S11303F000000000000000000000000000000000F9
S1130400FFFFFFFFFFFFFFFFFFFFFFFF7EFFFFFF79
S1130410F0B5C64600229621114B00B51A70114B57
S1130420490018885E88884202D800248E4212D976
S1130430642587193900684300F01EFAFF23184029
S11304402C1A280098463900704300F015FA4346E8
S1130450184024186410044A146080BCB846F0BDE7
S113046000F0FF1F08F0FF1F04F0FF1FF8B5DE4681
S113047057464E464546E0B572B68021A64BA74A7C
S113048089009858A64C014399508021206DA54DB0
S1130490490028400143A44821654169A34CC02771
S11304A02140416180209958C000A14E01439950D8
S11304B0B46CBF002C403C43B46480249D49814605
S11304C04869E40204434C61F46C48462C402743D9
S11304D08024F7644E69240334434C6180219C5882
S11304E049012143944C995061682C2729400225E5
S11304F001436160914CFF206169072629436161D2
S113050080248F4964045D5880462C4380255C50C8
S11305108C4CED042660A0606761585828435850FD
S1130520404689490E608860CF604F612768F7387C
S1130530074327600C6804430C608449844C0E60B4
S11305404C6088210C2449015C50002448468149B0
S11305500C70995808439850202099580143995099
S11305607D4B7E4A196810380A4380211A601A6844
S113057082431A601A680A431A60794A156004258E
S11305801A682A431A601A688A431A601A68024071
S113059091461A6882431A601A68303082431A609E
S11305A01A6870480A431A6004706F4909228C461D
S11305B06E496F4F88460421802412075A601A68D6
S11305C0224380241A605A68E40322435A601A685A
S11305D01142FCD01A680A431A6001223A705C681E
S11305E00278A3465400A2465E466446554601324C
S11305F0D2B266530270012A02D84446A25CDBE7F9
S113060080211A688A431A601A6840390A431A60BA
S11306104A46002A7AD0102219680A431A60102226
S11306204D4C236893432360236870321343236043
S113063062B60F23444A4F4D136100239361414A2C
S113064093614D4B002298460023994630BF2B7886
S1130650DEB2002BFAD04B462B70002A20D03B7818
S1130660002B2FD143461B78412B47D8202B3FD951
S113067000220F210020344B186199615521314B20
S11306809A61254A3D4BD1505531D150320030BF8B
S11306902B78DEB2002BD9D04B462B70002ADED14A
S11306A0236880321343236080236268DB0313438F
S11306B00422636023681A42FCD023681A4301238E
S11306C022603B70FFF7A4FE43461B78412B15D8EC
S11306D03A78002ACAD0FFF79BFE43461B78202BAA
S11306E0C6D83A78002A03D0FFF792FE43461B7817
S11306F0002B07D1002200210020BCE700220021AA
S11307000F20B8E70F2200210020B4E710211A6857
S11307108A431A6083E7C046007004403810000022
S113072000900440FFF8F0FF00F00F40FFFFEFFFE0
S113073000A0044040F00F4000C00440C0F00F404F
S11307403C1000000080034000A0034010E000E0E3
S113075080BB00004BF0FF1F00500440608B8710EB
S113076000E100E048F0FF1F28F0FF1F240900000B
S113077000F0FF1F4AF0FF1F04F0FF1F04110000E8
S1130780012304210F4A30B513700F4A0F48137028
S11307900F4A104D13680B431360037851685C00D3
S11307A0655B491B0C4D615359424B410B49DBB20C
S11307B00370CB5C1B07536080235168DB030B433E
S11307C0536030BD4BF0FF1F00F0FF1F49F0FF1FC7
S11307D00050044028F0FF1F08F0FF1F2409000008
S11307E00122014B1A7070474AF0FF1F002934D0D0
S11307F00123002210B488422CD301242407A142EF
S113080004D2814202D209011B01F8E7E400A142AB
S113081004D2814202D249005B00F8E7884201D346
S1130820401A1A434C08A04202D3001B5C0822431E
S11308308C08A04202D3001B9C082243CC08A0428F
S113084002D3001BDC082243002803D01B0901D07B
S11308500909E3E7100010BC704701B5002000F05F
S11308605FF802BD0029F8D003B5FFF7C1FF0EBC45
S11308704243891A1847C046002941D010B40400E5
S11308804C40A44601230022002900D549420028F7
S113089000D5404288422CD301242407A14204D22B
S11308A0814202D209011B01F8E7E400A14204D20B
S11308B0814202D249005B00F8E7884201D3401A22
S11308C01A434C08A04202D3001B5C0822438C0844
S11308D0A04202D3001B9C082243CC08A04202D3AE
S11308E0001BDC082243002803D01B0901D009099E
S11308F0E3E710006446002C00D5404210BC70476A
S113090001B5002000F00CF802BDC0460029F7D064
S113091003B5FFF7B3FF0EBC4243891A1847C0461C
S11309207047C046090A0001020304050607080BC4
S10709300C0D0E0F89
S107093401000000BA
S9030131CA
